{
  "_format": "hh-sol-artifact-1",
  "contractName": "SmartestContract",
  "sourceName": "contracts/SmartestContract.sol",
  "abi": [
    {
      "inputs": [],
      "stateMutability": "nonpayable",
      "type": "constructor"
    },
    {
      "inputs": [],
      "name": "Owner",
      "outputs": [
        {
          "internalType": "address payable",
          "name": "",
          "type": "address"
        }
      ],
      "stateMutability": "view",
      "type": "function"
    },
    {
      "inputs": [
        {
          "internalType": "address",
          "name": "",
          "type": "address"
        }
      ],
      "name": "getBalance",
      "outputs": [
        {
          "internalType": "uint256",
          "name": "",
          "type": "uint256"
        }
      ],
      "stateMutability": "view",
      "type": "function"
    },
    {
      "inputs": [
        {
          "internalType": "address payable",
          "name": "_to",
          "type": "address"
        },
        {
          "internalType": "uint256",
          "name": "_amount",
          "type": "uint256"
        }
      ],
      "name": "transfer",
      "outputs": [],
      "stateMutability": "nonpayable",
      "type": "function"
    },
    {
      "inputs": [
        {
          "internalType": "uint256",
          "name": "_amount",
          "type": "uint256"
        }
      ],
      "name": "withdraw",
      "outputs": [],
      "stateMutability": "nonpayable",
      "type": "function"
    },
    {
      "stateMutability": "payable",
      "type": "receive"
    }
  ],
  "bytecode": "0x608060405234801561001057600080fd5b50336000806101000a81548173ffffffffffffffffffffffffffffffffffffffff021916908373ffffffffffffffffffffffffffffffffffffffff160217905550610618806100606000396000f3fe6080604052600436106100435760003560e01c80632e1a7d4d1461004f578063a9059cbb14610078578063b4a99a4e146100a1578063f8b2cb4f146100cc5761004a565b3661004a57005b600080fd5b34801561005b57600080fd5b5061007660048036038101906100719190610323565b610109565b005b34801561008457600080fd5b5061009f600480360381019061009a91906103ae565b6101e1565b005b3480156100ad57600080fd5b506100b66102ba565b6040516100c391906103fd565b60405180910390f35b3480156100d857600080fd5b506100f360048036038101906100ee9190610456565b6102de565b6040516101009190610492565b60405180910390f35b60008054906101000a900473ffffffffffffffffffffffffffffffffffffffff1673ffffffffffffffffffffffffffffffffffffffff163373ffffffffffffffffffffffffffffffffffffffff1614610197576040517f08c379a000000000000000000000000000000000000000000000000000000000815260040161018e90610530565b60405180910390fd5b3373ffffffffffffffffffffffffffffffffffffffff166108fc829081150290604051600060405180830381858888f193505050501580156101dd573d6000803e3d6000fd5b5050565b60008054906101000a900473ffffffffffffffffffffffffffffffffffffffff1673ffffffffffffffffffffffffffffffffffffffff163373ffffffffffffffffffffffffffffffffffffffff161461026f576040517f08c379a0000000000000000000000000000000000000000000000000000000008152600401610266906105c2565b60405180910390fd5b8173ffffffffffffffffffffffffffffffffffffffff166108fc829081150290604051600060405180830381858888f193505050501580156102b5573d6000803e3d6000fd5b505050565b60008054906101000a900473ffffffffffffffffffffffffffffffffffffffff1681565b6000479050919050565b600080fd5b6000819050919050565b610300816102ed565b811461030b57600080fd5b50565b60008135905061031d816102f7565b92915050565b600060208284031215610339576103386102e8565b5b60006103478482850161030e565b91505092915050565b600073ffffffffffffffffffffffffffffffffffffffff82169050919050565b600061037b82610350565b9050919050565b61038b81610370565b811461039657600080fd5b50565b6000813590506103a881610382565b92915050565b600080604083850312156103c5576103c46102e8565b5b60006103d385828601610399565b92505060206103e48582860161030e565b9150509250929050565b6103f781610370565b82525050565b600060208201905061041260008301846103ee565b92915050565b600061042382610350565b9050919050565b61043381610418565b811461043e57600080fd5b50565b6000813590506104508161042a565b92915050565b60006020828403121561046c5761046b6102e8565b5b600061047a84828501610441565b91505092915050565b61048c816102ed565b82525050565b60006020820190506104a76000830184610483565b92915050565b600082825260208201905092915050565b7f4f6e6c7920746865206f776e65722063616e2063616c6c2074686973206d657460008201527f686f640000000000000000000000000000000000000000000000000000000000602082015250565b600061051a6023836104ad565b9150610525826104be565b604082019050919050565b600060208201905081810360008301526105498161050d565b9050919050565b7f596f75206172656e27742074686520736d61727420636f6e746163742773206f60008201527f776e657200000000000000000000000000000000000000000000000000000000602082015250565b60006105ac6024836104ad565b91506105b782610550565b604082019050919050565b600060208201905081810360008301526105db8161059f565b905091905056fea26469706673582212207db21d66037e2cddc9d4bc3eec5c42783b97b08c451342c62dafe542df1e5aa064736f6c63430008110033",
  "linkReferences": {},
  "deployedLinkReferences": {}
}